:020000041000EA
:1000000000B5324B212058609868022188439860DF
:10001000D860186158612E4B002199600221596106
:100020000121F02299502B49196001219960352056
:1000300000F044F80222904214D00621196600F024
:1000400034F8196E01211966002018661A6600F04E
:100050002CF8196E196E196E052000F02FF8012189
:100060000842F9D1002199601B49196000215960AB
:100070001A491B48016001219960EB211966A021F2
:10008000196600F012F800219960164914480160C1
:100090000121996001BC002800D000471248134993
:1000A000086003C880F30888084703B5996A0420EC
:1000B0000142FBD001200142F8D103BD02B5186610
:1000C0001866FFF7F2FF186E186E02BD00000240BE
:1000D000000000180000070000035F00212200005C
:1000E000F4000018222000A00001001008ED00E03C
:1000F00000000000000000000000000074B24E7A12
:1001000000200420F7010010C3010010C5010010F9
:10011000C1010010C1010010C1010010C101001097
:10012000C1010010C1010010C1010010F523001031
:10013000C1010010C1010010212400100926001087
:10014000CD010010CD010010CD010010CD01001037
:10015000CD010010CD010010CD010010CD01001027
:10016000CD010010CD010010CD010010CD01001017
:10017000CD010010CD010010CD010010CD01001007
:10018000CD010010CD010010CD010010CD010010F7
:10019000CD010010CD010010CD010010CD010010E7
:1001A000CD010010CD010010CD010010CD010010D7
:1001B000CD010010CD010010CD010010CD010010C7
:1001C00000BE00BE00BE00BE00BE00BE00F04BF888
:1001D000103800BEF2EB8871C4110110E411011057
:1001E0003402001090A31AE700202149086006C8D5
:1001F00081F3088810471F48006800282FD10DA4FC
:100200000ECC002902D000F012F8F9E71A491B4A77
:10021000002000E001C19142FCD1194988471949E9
:1002200088471949884700BEFDE701C901C29A42C3
:10023000FBD37047E4110110C00000208C0D00209A
:10024000B01E01100000042000000420B01E0110A8
:1002500000100420001004200000000070470B482C
:1002600006F09CFE0047EFF30580C0B27047000027
:1002700008ED00E0000000D0900D0020DCDD032040
:10028000AD540010C105001069540010575600000D
:1002900006005250ABB36053200A011006005250C2
:1002A000861C0302300A0110060052505422A29DFF
:1002B000480A011005005250DE65F468B01E0110B6
:1002C000F8B5C04610B5064C2378002B07D1054B76
:1002D000002B02D0044800E000BF0123237010BDB2
:1002E000980E002000000000B0B60010044B10B5BE
:1002F000002B03D00349044800E000BF10BDC046F6
:10030000000000009C0E0020B0B6001070B582B056
:10031000D0252D062E6804F027F80400002003F0F5
:10032000DFFC0090230032001549164807F004FF57
:10033000154807F0CFFE192002F030F880239B0407
:100340006B62D02424068025AD046561192003F07A
:100350000BFBA561192003F007FB256804F004F8E6
:100360000400002003F0BCFC009023002A00044994
:10037000044807F0E1FE054807F0ACFEE1E7C0469F
:1003800048190220B0B60010C8B60010DCB6001044
:1003900030B583B0D0231B061D6803F0E5FF0400D1
:1003A000002003F09DFC009023002A0009490A4820
:1003B00007F0C2FE094807F08DFE642003F0D4FA6E
:1003C000002001F03DF8072003F0CEFA012001F0F3
:1003D00037F8F8E748190220B0B60010E4B600106C
:1003E00030B583B0D0231B061D6803F0BDFF0400A9
:1003F000002003F075FC009023002A0009490A48F8
:1004000007F09AFE094807F065FE642003F0ACFA95
:1004100001F07AFA032003F0A7FAFA20800001F035
:10042000FFFAF7E748190220B0B60010F8B600103E
:1004300070B584B09620400003F096FAD0231B06D6
:100440001D6803F091FF0400002003F049FC0090B8
:1004500023002A004C494D4807F06EFE19214C48F4
:1004600007F06AFE01F066FB8022920200214948F3
:1004700007F014FD142001F0BDFB474801F0BEFB5E
:10048000642003F071FA00250FE0EB011B195B00FB
:10049000424AD05A01F0E3FC02002900200001F09A
:1004A00095FB01347F2CF0DD01357F2D01DC00242C
:1004B000F8E7FA20400003F057FA002001F09EFB15
:1004C000102600E001366F2E19DC10256F2DF9DCA7
:1004D0007400A41924046B005B191B021C432B003D
:1004E00073431B111C4322002900300001F06EFBF6
:1004F00022002900300001F069FB0135E6E7042401
:100500000AE0274A0421200001F060FB254A3C2133
:10051000200001F05BFB01347B2CF2DD00240BE0BA
:10052000CC2292012100012001F050FB3322210056
:100530003E2001F04BFB01347F2CF1DD00240394BD
:10054000FA2203AD01950094012392001649174841
:1005500003F012F80394FA26F600019500940123A3
:1005600032001349134803F007F8039401950094EF
:10057000012332001049114802F0FEFF002003F071
:100580002BF804B070BDC04648190220B0B6001068
:100590000CB70010181500200202020058B7001016
:1005A000003333003300330028B7001091030010EC
:1005B00034B70010E103001040B700100D03001025
:1005C00000B583B007F0C4FD0F2001F0E7FED02393
:1005D0001B06802212025A62FA2200230193009322
:1005E0000133D2000349044802F0C6FF03F040F88B
:1005F000FEE7C0464CB700103104001010B5A02231
:10060000D2051F4BD1581F4B1B6801229A400A424A
:1006100020D0A020C0051A4942501B490A889000EA
:100620001A4C246820589B01A024E405A446634486
:10063000D863013293B20B80154A118801228A4097
:10064000934207DBD0231B0680221202DA610E4B95
:1006500001221A80A022D205094BD1580D4B1B68EC
:1006600001229A400A4209D0A020C0050449425004
:10067000094A12689B0184466344DA6310BDC04690
:100680000C0400001815022020040020481300204C
:1006900022040020A8140020A4140020084B1B688A
:1006A000084A12689B01A021C9058C466344DA639D
:1006B000054B1B68054A12689B016344DA63704767
:1006C000181502203C150220A8140020A4140020B4
:1006D000F0B58DB0844C0121200001F07BFC834DEE
:1006E00028600121200001F075FC814B18608149D0
:1006F000200001F09DFC06007F4B18602D68102241
:10070000002108A807F0CAFB80235B020893F823A6
:100710005B0209938023DB020A93C0231B030A9325
:10072000102208A904A807F0BFFB32001A32059B6B
:100730000393724B03990B40F1010B4312031343D4
:100740000593079A0392D200D208802189050A43B3
:1007500007926B4A13400593102204A908A807F0DA
:10076000A3FB012300930B3306222900200001F094
:1007700099FC062404E00621200001F0F7FD013475
:10078000112CF8DD0B9B03935E4A1A405E4B13431A
:100790000B930123009301331A222900524801F0E0
:1007A00081FC1A2404E00621200001F0DFFD013461
:1007B0001B2CF8DD0B9B0393544A1A40544B1343F4
:1007C0000B93012300931C222900474801F06AFC87
:1007D0001C2404E00621200001F0C8FD01341C2C7B
:1007E000F8DD0B9B03934B4A1A40E023DB011343D4
:1007F0000B93DB00DB088022920513430B93099BCC
:1008000003933F4B039A134009930A9B03939A0067
:1008100092088023DB0513430A933F4A1A40802342
:100820001B0313430A933D4A13400A932E4C08AB13
:1008300032002900200001F06DFC6B005B19DB0029
:10084000374A944663441E60226801273B00AB4050
:100850009A43134323603349200001F0E9FB05006C
:10086000314B1860224B1E681022002108A807F0A7
:1008700015FB80235B020893F8235B020993802316
:10088000DB020A93C0231B030A93102208A904A8C1
:1008900007F00AFB2A1D059B0393184B03990B4095
:1008A000E9010B43120313430593102204A908A87E
:1008B00007F0FAFA0097052312223100200001F018
:1008C000F1FB122404E00621200001F04FFD013469
:1008D000162CF8DD0B9B03930A4A1A40134B134363
:1008E0000B931A2429E0C04600002050281502204E
:1008F000241502204CF80010201502207F00FEFF76
:10090000FFFFFF9FE0FF0FFC0600C0001FFCFFE39E
:1009100040030008FF83FFFFFFFFF5C1FFFF0AFE52
:10092000D800205038F800101C150220120050008A
:100930000621200001F01AFD01341B2CF8DD6E4F5A
:100940000124009402231A223100380001F0AAFB8E
:100950000B9B0393694A1A40694B13430B930A9B01
:1009600003939A0092088023DB0513430A93654A98
:100970001A4080231B0313430A93634A13400A93CC
:1009800008AB2A003100380001F0C4FB73009B194A
:10099000DB005E4A944663441D603B68B440A34359
:1009A0001C433C60012001F00DFD594B1860594A71
:1009B0000C2800D987E0584B1A40C00202430C248F
:1009C000A24308210A43554B1A40554B1A40554B38
:1009D0001A4001231A43544B1A401300A3430B43FC
:1009E0001022134310329343504A12683F2A00D911
:1009F0006FE04F491940D3030B43454A10684B4AF7
:100A0000116889004B4A944661448201A024E405A0
:100A1000A446624400241460516080210901916061
:100A2000136101238340444A1360012001F0CAFC92
:100A3000424B1860374A0C2851D8374B1A40C00235
:100A400002430C24A24308210A43344B1A40344B7E
:100A50001A40344B1A4001231A43334B1A401300F7
:100A6000A3430B431022134310329343344A1268BA
:100A70003F2A3AD82E491940D3030B432F4A106816
:100A80002F4A116889002B4A944661448201A024B0
:100A9000E405A44662440024146051602021916062
:100AA000136101238340244A136026490B2004F07C
:100AB00021FF01210B2005F01DF801210B2004F07E
:100AC00001FF0DB0F0BD204B204AC021204804F0AA
:100AD000CFFC204B204AAA311D4804F0C9FC1A4B18
:100AE0001A4AC0211A4804F0C3FC1A4B1A4AAA3108
:100AF000174804F0BDFCC046000020501FFCFFE377
:100B000040030008FFFFF5C1FFFF0AFED800205098
:100B10001815022010801F00FF87FFFF3FF8FFFF1E
:100B2000FFFFBFFFFFFFDFFFFFFF7FFF2815022052
:100B3000FF7FE0FF1000205004240050A814002084
:100B400024150220FD05001058F7001004F80010CD
:100B500078F70010D4F7001020F80010F0B5C64662
:100B600000B582B0032803DD082802DD082000E07C
:100B70000420A74B188000210B2004F0A3FE1B20AB
:100B800001F00CFCD0231B06802212055A625A6128
:100B9000A04B1968A04801F03BFA002800D0C5E03E
:100BA0009E4B19689C4801F033FA002800D0CFE032
:100BB000994801F059FA9A4B186801F013FC002883
:100BC0002FD0974B196801238B40A020C005954A70
:100BD0008350A022D205934BD358CB40DB07F8D4E7
:100BE000914B0C2900D9C5E0904A1340C9020B4330
:100BF0000C229343043A13438D4A13408D4A134009
:100C00008D4A1340012213438C490B409343844A7D
:100C100010688201A021C9058C466244136101F06D
:100C2000C9FB874B186801F0DDFB00282FD0844BEF
:100C3000196801238B40A020C0057A4A8350A02266
:100C4000D205784BD358CB40DB07F8D4764B0C2930
:100C500000D995E0754A1340C9020B430C22934317
:100C6000043A1343724A1340724A1340724A1340C3
:100C70000122134371490B409343714A106882016A
:100C8000A021C9058C466244136101F093FB6D49B4
:100C90000B2004F059FE6C4B1868002801D007F0B7
:100CA000E5F85B4B1C886403200007F0C1F8664B35
:100CB00018602200002107F0F1F8644B1868002842
:100CC00001D007F0D3F8524B1C88E402200007F053
:100CD000AFF85E4B18602200002107F0DFF85C4B94
:100CE0001868002801D007F0C1F8494B1C88E401BE
:100CF000200007F09DF8564B18602200002107F0F5
:100D0000CDF8544B1868002801D007F0AFF8404BDD
:100D10001B8804249C40200007F08AF84D4B186083
:100D20002200002107F0BAF8002563E0394D296858
:100D3000394C236801228A40934323600023002218
:100D4000200001F0E7F92968200001F033F927E7D6
:100D5000324D2968304C236801228A409343236036
:100D600000230022200001F0D5F92968200001F0BD
:100D700021F91DE7384B394AC021394804F078FB86
:100D8000354B364AC021364804F072FB0134204B03
:100D90001A8801239340A3422BDD23002B41DB075C
:100DA000F4D5A6002B4B1B689B59002BEED1D0230A
:100DB0001B061B68984603F0D7FA0700002002F0D4
:100DC0008FFF00903B0042462649274807F0B4F9C0
:100DD0000F4F3A88521B2100244807F0ADF93B8899
:100DE0005B1B5B031B4A1168174A1268D3188B51AF
:100DF000CCE70135064B1B88AB4201DD0124C6E779
:100E0000FFF766FCFFF74AFC02B080BCB846F0BDB5
:100E10002204002024150220000020502815022062
:100E2000181502204404000010801F00FF87FFFFF8
:100E30003FF8FFFFFFFFBFFFFFFFDFFFFFFF7FFF69
:100E4000A8140020FD0500103C1502206C1902209A
:100E5000A41400204813002058F7001004F80010D4
:100E600078F7001048190220B0B60010E8F700101B
:100E70000430032803DD7F2802DD7F2000E004200A
:100E8000014B18807047C046CEDD0320431E0E2B59
:100E900002D88000014BC1507047C04670590220F3
:100EA000F0B5DE4657464E464546E0B589B0069059
:100EB0000791A84B1F880822D71B2EE1029B02C373
:100EC000019A013201925446DA460293019B1F2B8C
:100ED00000DDFEE05346186822683378002B02D00C
:100EE0009B009D495858009B1B78002B02D09B000B
:100EF000994A9A580123BB4001001940F9408900E2
:100F00008846010A1940F940490045462943000C2A
:100F10001840F840014310001840F8408000804617
:100F2000100A1840F840400045462843120C1A4069
:100F3000FA400243D200114362460132D2B28748DE
:100F400000888046824201D980221143524652686D
:100F5000606881467078002802D080007E4A8258FE
:100F600000984078002803D080007B4D405981468E
:100F700010001840F84080008346100A1840F840DE
:100F800040005D462843120C1A40FA4010434A467E
:100F90001A40FA40920093464A46120A1A40FA4012
:100FA00052005D462A434D462D0C1D40FD402A430C
:100FB000D200024312020A4361460231C9B2884597
:100FC00002D2802109020A4351468868A1688946F5
:100FD000B178002902D089005F48085800998978C3
:100FE000002903D089005C4D495989460100194008
:100FF000F94089008B46010A1940F94049005D46D5
:101000002943000C1840F840014348461840F84076
:10101000800083464846000A1840F84040005D467C
:1010200028434D462D0C1D40FD402843C000014380
:101030000904114362460332D2B2904502D28022A3
:10104000120411431022524493465246D068102293
:101050009246A244E468F278002A02D092003E4808
:1010600010580436009AD278002A02D092003A4CE6
:101070001459009A0432009202001A40FA40920079
:101080009146020A1A40FA4052004D462A43000C8B
:101090001840F840024320001840F8408000814684
:1010A000200A1840F84040004D462843240C1C40BC
:1010B000FC402043C0000243120611436346043340
:1010C000DAB29446904500D3F8E680231B06194314
:1010D000F4E61F22059B1A40049B04C3039A0132C5
:1010E00003920493039B1F2B16DC039A0592530271
:1010F00006998A469A44150020356B028946994420
:10110000D601079B9C466644ED01654400239C463E
:1011100001934C460095D9E60137072F11DC104B9F
:1011200019680C4B1A8808239B1AFB1A1A038A1891
:1011300002920C4A1268DB01D31804930023039334
:10114000D0E7002009B0F0BCBB46B246A946A04695
:10115000F0BDC0462204002070590220CEDD0320DD
:101160003C150220A414002070B5040008001100F2
:1011700025786B1CDBB22370ADB2144A12889542FD
:1011800012D29CB2124D2D88AC4213D2114A128851
:1011900094420ED39B1A9A00D2185206120CFF23C7
:1011A0001A4300F049FD04E0002323700A4A00F0CE
:1011B00043FD70BDD21A93009A185206120CFF23F9
:1011C0001B041A4300F038FDF3E7C0462C0400204E
:1011D0002A0400202804002000140A00F0B5C646A6
:1011E00000B58022D2010021554806F057FE554B2C
:1011F00000221A8000264BE07F21002805DB7F2893
:101200001ADC070002E00021F7E77F27C9014E4BF7
:101210005B18DB198021C9018846434419780131E4
:101220001970013212B2631C9A4207DC002AE3DB18
:101230007F2AE8DC1100E0E70027E7E7013000B291
:1012400063460133984202DC721E12B2EBE7E401FE
:101250003D4B1C19644427008023DB019C466744F6
:101260003B78013B3B700135ADB27F2D0ED8340089
:10127000AC46F201344B9B185B5D002BF3D0314A36
:10128000138801331380681E00B2D9E70136B6B265
:101290007F2E01D80025E8E70026002547E0EA0177
:1012A000294B9B181B5D002B25D1013424B27F2CC8
:1012B0003BDC2900EA011019234BC0189B181B19AD
:1012C0008022D201944663441B78022BE7D0032B83
:1012D00015D0EA011C4B9B181B5D002BE5D01A4B67
:1012E000991800230B55194A2100280000F0A4FC8E
:1012F0000136B6B2D9E72200FFF736FFD5E7EA019B
:10130000114B9B181B5D002B0BD10F498918012332
:101310000B550F4A2100280000F08EFC0136B6B2B2
:10132000C3E72200FFF720FFBFE701352DB27F2D75
:1013300001DC0024BBE7300080BCB846F0BDC046ED
:10134000B0990220D0DD0320B059022000140A0019
:1013500000FF320010B509F0BFFF10BD70B5164B8D
:101360001D88164800F04AFC0EE0013DADB20300B6
:10137000D4010419012060540132D2019A1850544A
:1013800001315054002D15D0FFF7E4FF7E2105F008
:1013900059FE0C00FFF7DEFF7E2105F053FE23040B
:1013A0001A0C0904090C5B0A0548C3185B5C012B85
:1013B000DBD1E7E770BDC0463004002000140A000E
:1013C000B059022070B5194B1B88834205D8184BC1
:1013D0001A88184B1B889A4227D2174B1D880EE09B
:1013E000013DADB20300D401041901206054013263
:1013F000D2019A18505401315054002D15D0FFF7E6
:10140000A9FF7E2105F01EFE0C00FFF7A3FF7E2141
:1014100005F018FE23041A0C0904090C5B0A07489E
:10142000C3185B5C012BDBD1E7E770BD2E04002005
:10143000D0DD03203204002034040020B059022003
:1014400070B584B000281AD0FFF7C8FE0400FFF77B
:10145000B9FFD0231B061E6802F086FF050000209E
:1014600002F03EFC00902B0032001549154806F0B2
:1014700063FE2100144806F05FFE04B070BD0E301C
:1014800068448623038009F053FF104800F0B6FB40
:101490000F4C8025ED012A000021200006F0FEFC03
:1014A00060192A00002106F0F9FCFFF757FF02F04F
:1014B0001BF9084B1B68C018074B1860DDE7C046D6
:1014C00048190220B0B600108CF8001000140A0071
:1014D000B0590220240400201415002084B0F0B577
:1014E00005900691079208930600944684440D00E7
:1014F000089B5918124B0B9A1201D0589B189A68E6
:1015000012185F68DB68DB190B9C002C01D1B2421A
:101510000FDD0B9A012A08D0AB420CDDB9420CDD7D
:101520000120F0BC08BC04B018478445F4DC00205E
:10153000F7E70B98F5E70020F3E70020F1E7C04656
:10154000C0D90220F0B5D6464F464646C0B582B057
:1015500001910201804B9B185D68DE68F20F9219C1
:101560005210AA187D4BDC685B689C46E71AFB0F9B
:10157000DB195B1063449A46794F3F69FB17F918F2
:101580005940884601218946C844002F03D1744B35
:101590005B69002B75D000280BD1002F01DB0021E7
:1015A00008E0C8235B009946019B4B453EDB0021C8
:1015B00000E00021002F01DD00283BD0002F37DBA9
:1015C000002900D07EE0664B5969002917DD5F686D
:1015D0004346D31A9F4207DD030101935E4B9946B0
:1015E000019B4B4445445D604346D3189F4206DA55
:1015F0000501594B5B195D684746ED1B5D6000298D
:1016000045DB002929D1564B5B68934205DC050177
:10161000514949194D68013D4D6093421DDB02015E
:101620004D4B9B185A6801325A6016E00121C1E700
:101630000128C5D15346D91E914204DD0701464910
:10164000C91903354D6053460333934205DA02014D
:10165000414B9B185A68033A5A6002013E4B9B1853
:101660005B689C4503DD3C4B9B1862465A60020157
:10167000394B9B185B68A41BA34202DD364B9818BC
:10168000446002B0E0BCBA46B146A846F0BD344B57
:101690005D684346D3189D4209DA03012E4FB946CF
:1016A00099444B465F684346FF1A4B465F6043468A
:1016B000D31A9D42A5DD0501274B5B195D684544A2
:1016C0005D609EE7264A5269002A08DD2449496880
:1016D000514519DD07012049C919023D4D60002A15
:1016E00018DB002AB9D11E4A5268524524DD010197
:1016F000194B5B185B68F1188A42AEDA0101164A91
:101700005218023B5360A8E707011349C919023573
:101710004D60E4E712494968514506DD05010E496F
:1017200049194B689D1C4D60DBE705010A494919C1
:101730004B689D1E4D60D4E70101074B5B185B6849
:101740000749C9685218934200DB86E70101024A43
:1017500052180233536080E7C0D90220B0D902206A
:1017600060130020F0B5CE46474680B585B0060030
:101770005E4B1A69002A03D15B69002B00D196E009
:101780005A4B19688C4662441A605A695968541851
:101790005C60574B5B689C4206DB554BDB685349EA
:1017A000C9685B1A9C4202DD5242504B5A610024C8
:1017B00000272CE0C8239B009E423EDA02204543CE
:1017C0004A4B98461D6109F087FD052105F012FC82
:1017D000023943465961E7B20137FFB2D0231B06F5
:1017E0001B68994602F0C0FD0500002002F078FA5F
:1017F00000902B004A463F493F4806F09DFC434677
:101800001B69320021003D4806F096FC0134012C92
:101810001CDC364B0294190010316A4621C921C2E2
:10182000186859689A68DB68FFF758FE05000128B8
:10183000ECD1002CBED0023DBCE709F04DFDC20F3B
:10184000831801201840801A0130B8E7002F0AD110
:10185000264B1A682A4B1B6801339A4203DCC823C3
:101860005B009E4228DB214B1A68214B1B689A4281
:1018700001DA1E4A13601D4A11681D4B9B6892686D
:101880009B1A994201DD194A1360184B5A68184B8C
:101890005B689A4201DA154A5360144A5168144B46
:1018A000DB68D2689B1A994201DD104A536005B08B
:1018B000C0BCB946B046F0BD0C4B00221A615A615B
:1018C000D0231B061D6802F04FFD0400002002F02B
:1018D00007FA009023002A000649074806F02CFC6E
:1018E0003100084806F028FCBDE7C0466013002020
:1018F000B0D9022048190220B0B60010A0F800109C
:10190000C0D90220D0F8001070B582B03F4C0A2632
:1019100026603223A3606660E36000F0C3F93C49AF
:10192000012000F098FAFF210904022000F093FA48
:101930003849032000F08FFA2368581E6368591E47
:1019400009B2A3685A1C12B200B201250195009594
:101950000B0000F0C3F92368581EE368591C09B254
:10196000A3685A1C12B200B2019500950B0000F05A
:10197000B5F92368581E00B26368591EE368013345
:101980001BB209B201950095020000F0A7F9A36807
:10199000581C00B26368591EE36801331BB209B2D8
:1019A00001950095020000F099F92068A3681B1AC0
:1019B000DA0FD2185210801800B26368591EE3681B
:1019C00001331BB209B201950095020000F086F9BF
:1019D000A168CA0F521852100F4B1A60E068C20F6C
:1019E000121852105A6005209860D8605D611D6120
:1019F00020680A4B18605A6002209860DE60013946
:101A000019615A619861DE6102B070BDB0D90220DF
:101A100000FFFF0050FF500060130020C0D90220DB
:101A2000F0B583B0050000F0A9F83F4C0C22A35E8E
:101A30000821625E0420215E0026A05F0126019637
:101A40000027009700F0DFF92368A268D21AD00FB0
:101A500080184010181800B26368591EE3680133FB
:101A60001BB209B201960096020000F037F9280077
:101A7000FFF778FE29000020FFF764FD2900012010
:101A8000FFF760FD00251AE0284B2A01D0589B186B
:101A9000596889190019022200F00EF901342A014F
:101AA000224B9B189B68A342EEDC01362A011F4B98
:101AB0009B18DB68B34201DD0024F0E70135012DFE
:101AC00001DC0026F2E700251EE0012410E00124DD
:101AD0000EE0012200E001229B1AA34213DD144B09
:101AE0001868596849190019032200F0E5F8013413
:101AF0000F4B9B68002DEED00D4AD268013AAA42E6
:101B0000E7D00022E8E70135094BDB68AB4206DD90
:101B1000002DDCD0013BAB42D7D00024E8E700F039
:101B200037F8002003B0F0BDB0D90220C0D90220A0
:101B30006013002000B585B0012001F0DCF90C4BEA
:101B4000186000230022002101F050F90820FFF75F
:101B500005F800230393802203A901910093013328
:101B600092000449044801F007FD05B000BDC046DD
:101B700038150220F0F80010A91B001010B5034B17
:101B80001868642101F076FA10BDC04638150220AD
:101B900010B5044B186800230022002101F026F93B
:101BA00010BDC0463815022010B5FFF7E7FF054B02
:101BB00018680549FFF774F9FFF7EAFF032001F001
:101BC000D3FEF2E73804002070190220C901091879
:101BD0008900024B1B685A507047C04638040020E9
:101BE00070B504AC257814041A0222432A43FFF787
:101BF000EDFF70BD10B5FFF73BF910BD002304E009
:101C00009A0004490968885001338022D201934226
:101C1000F6DB70473804002080B27F2805D8002901
:101C200005DB7F2905DC002000E001207047012052
:101C3000FCE70120FAE70000F0B583B005000E00D4
:101C40001700FFF7E9FF00281CD13A0CFF242240BF
:101C5000124B1B880821C91ACA40D2B23B0A234042
:101C6000CB40DBB23C40CC40E4B20D4909780029BE
:101C700003D00B494978914206D0009431002800E6
:101C8000FFF7AEFF03B0F0BD054989789942F4D162
:101C90000349C978A142F0D1F4E7C04622040020EC
:101CA0005C13002010B58022D2010021014806F00B
:101CB000F5F810BD7019022070B506000C00150073
:101CC00009B200B2FFF7A8FF002803D1E401A4196C
:101CD000014B1D5570BDC04670190220F0B5DE469F
:101CE00057464E464546E0B585B00EAC20CCA946D9
:101CF0002478A2460400101AC51746196E400D003C
:101D00005F1AF8173F184740A24215DB01220192E3
:101D10008B4215DB01230293BE423ADB7B00039327
:101D20009B1B9B46002398463B002F002500444602
:101D3000B0465E469B461AE0012252420192E7E716
:101D400001235B420293E7E739B228B24A46FFF724
:101D500073FF002E16DB5B4642469B1A5B00F618AB
:101D6000019B9C466544029B9C4667440134444564
:101D700042DC5346002BE7D04A4639002800FFF7E3
:101D80009BFFE6E7039B9C466644019B9C4665449B
:101D9000ECE773000393DB1B9B460023984632005D
:101DA0005E463B00270044469846934612E029B21F
:101DB00038B24A46FFF740FF002E16DB5B4642462C
:101DC0009B1A5B00F618019B9C466744029B9C464D
:101DD0006544013444450FDC5346002BE7D04A46A6
:101DE00029003800FFF768FFE6E7039B9C4666443E
:101DF000029B9C466544ECE705B0F0BCBB46B2468E
:101E0000A946A046F0BDF0B5D6464F4680B583B092
:101E1000019017009A460AAB04CB91461E780D003C
:101E200010E029B220B24A46FFF706FF0134A7426C
:101E300007D3002EF5D04A4629002000FFF73CFFCB
:101E4000F4E70135AA4501D3019CF0E703B0C0BC1B
:101E5000BA46B146F0BD10B5FFF718F810BD010045
:101E6000C30ADB025B43FC22D200024052431F2024
:101E700001404943180E0004930B1B0218438908C4
:101E8000084370470523CB56002B01DB934211D149
:101E9000094B9C466044434258418000074BC05860
:101EA000097901238B40013B93401840434258413C
:101EB000C0B270470020FCE70000D0AF4013002004
:101EC00070B50A79202A19D8174B9C4660444342C2
:101ED00058418000154BC45801239340013B497978
:101EE00049B2002910DB08002025AA1A914218DC0B
:101EF0008B401C4201D00120404270BD0C4B0D4A6A
:101F000040210D4803F0B4FA2020801A002805DB98
:101F10001A0082401442F0D00138F7E70120404215
:101F2000EBE701204042E8E70000D0AF401300207B
:101F3000FCF80010ACF9001028F9001070B505008D
:101F40000C001600FFF79EFF002801D0002007E0DC
:101F5000154803F027FB831912339B005A510130B7
:101F6000237983420FD92378617809021943A27833
:101F700012041143E3781B060B4342009A5A530B99
:101F8000E9D19219E7E701229A401300013B074A81
:101F9000944665446A425541B340054AAD00A9588C
:101FA0000B43AB5070BDC04674F900100000D0AFB9
:101FB0004013002010B5054B9C46604443425841F5
:101FC00080004118024800F079F910BD0000D0AF40
:101FD000D5DD032010B582B00A4B9C4660444342D5
:101FE00058418400E31C084A00922200074800F090
:101FF0003DF9844202DC001B02B010BD01204042CA
:10200000FAE7C0460000D0AF88F90010D5DD032004
:1020100010B5054B9C46604443425841800041182E
:10202000024800F0FFF810BD0000D0AFD5DD03205E
:10203000F8B505000E0000F0DFF8070031002800B9
:10204000FFF73EFF041E09DB020031002800FFF706
:1020500075FF380000F0DCF82000F8BD014803F0FF
:10206000A1FAC04674F9001010B5040000F0C4F8DD
:102070000A4BE3185A4253419B00094A00219950E8
:10208000002306E01F2119401A001232920011515C
:1020900001331F2BF6D900F0BBF810BD0000D0AF04
:1020A00040130020F0B505AC25784C006418E4001E
:1020B0000419DC342468A446002D01D01F2614E046
:1020C000002612E05401A0256D0525434C0064183C
:1020D000E40004192700DC373D600D4D3543D8344A
:1020E0002560053B05321F242240052BEAD89B06BC
:1020F000520113434C006218D20082181500DC35DF
:102100002B60034B1E43D832166063462B60F0BD34
:1021100080E00000F0B58BB004000D0016000268EE
:102120000121A9408A430260002B35D0690049197A
:10213000C90041180A00C832186810600432586893
:102140001060043298681060DB68DC310B60690055
:102150004B19DB00D033E318802252011343802255
:1021600012061A601A60234BAB40A3602268281D38
:1021700001231F0087403A4322602268280008306C
:102180008340134323601F2216404919C900641875
:10219000D83426600BB0F0BD1022002106A805F04F
:1021A0007DFE80235B020693F8235B020793802366
:1021B000DB020893C0231B030893102206A902A880
:1021C00005F072FE6B005B19DB00E3181A00C832E1
:1021D00002991160039A01921A00CC3201991160A0
:1021E000049A01921A00D03201991160059ADC33E9
:1021F0001A60ACE701010101EFF3108072B6034BE6
:102200001B68002BFBD0BFF35F8F70472C0100D001
:10221000BFF35F8F024B00221A6080F31088704773
:102220002C0100D0CB08C25C072319400120884054
:102230001040431E9841C0B27047F8B506000C002C
:102240001500FFF7D9FFE308F718F15C07222240D9
:10225000012393400B4205D1DBB20B433B70FFF7E8
:10226000D7FFF8BD2100280003F09CF9F0B583B03A
:102270000600019114001F00FFF7BEFF00E00134CB
:10228000BC420CD8E308F518F35C07212140012279
:102290008A401A42F3D1D2B21A432A7001E00124D3
:1022A0006442FFF7B5FF002C02DB200003B0F0BD55
:1022B000019B002BF9D0089803F074F970B5050064
:1022C0000C00FFF799FFE308EE18EA5C07210C40C9
:1022D0000123A340134204D09A433270FFF798FFC2
:1022E00070BD034B034A2C31034803F0C1F8C046CC
:1022F000CCF900103CFA0010ECF90010034B1B68FD
:1023000002201840431E9841C0B2704700C00640EA
:10231000002307E0054A9A189200BFF35F8F00215F
:10232000116001331F2BF5D97047C04640000034BF
:10233000054A1078431CDBB21370172B02D9130027
:1023400010221A707047C0463C04002000B583B0CC
:102350000100044B00931F2318220348FFF786FF58
:1023600003B000BD4CFA00107814002010B58300B3
:10237000084A944663441C6840226240C0241440CA
:102380008022520113431C60C000034B9C466044F2
:10239000416010BD04C001400040014010B5012360
:1023A0008340D0221206936293610521FFF7DEFF7E
:1023B00010BD000010B501000148FFF77FFF10BD00
:1023C000CCDD032000B583B00100044B00930B2348
:1023D00000220348FFF74AFF03B000BD68FA00106F
:1023E000CCDD032010B501000148FFF71BFF10BD35
:1023F000CCDD032070470000084A136818682030BD
:1024000080F30988022080F31488BFF36F8F3FBCEC
:10241000AE4608BC04BC62B618470000F8D90220DA
:10242000EFF30980154B1A6820381060F0C044465D
:102430004D4656465F46F0C00D221207146E556E8B
:10244000566F176F3038F0C008B572B601F09CFABD
:1024500062B60CBC116808681030F0C8A046A946E6
:10246000B246BB4680F309880D2212073038F0C807
:102470001466556656671767F0C81847F8D90220E2
:1024800010B503F0A7F8000000B583B002E0D02338
:102490001B069B6DD0231B061B6DDB07F7D4D023D7
:1024A0001B06FF221A6500230193124B1A68EFF3F3
:1024B000108072B61368002BFCD0BFF35F8F0E49FB
:1024C0000A6800230B600B490968BFF35F8F0B603C
:1024D00080F31088094B196801AB094801F0ACFE84
:1024E000019B002B03D0074B802252051A6003B0DA
:1024F00000BDC046F4D90220A8DC032010DD032073
:10250000A92A001004ED00E070B504000D0002F0EF
:102510005BFC02000B1E0BDBA41A9D410B48012142
:1025200049420019694100290BDC07D0002070BD29
:10253000074B084A3F21084802F09AFF074B984290
:10254000F4D9074A002304F0A3FDF0E7F0D8FFFF19
:1025500088FA0010F8FA0010A4FA00100F27000003
:102560001027000010B5031F802464041C60043B86
:102570001960043B02491960143B1A60403810BDD1
:1025800081240010044B802252051A60BFF34F8F44
:10259000BFF36F8F7047C04604ED00E072B6044A87
:1025A000136801331360BFF34F8FBFF36F8F704712
:1025B00040040020074B1B68002B09D0064A116815
:1025C000BFF35F8F00221A6081F31088014B1A60FD
:1025D00062B670475CDA022090DC032010B5054A31
:1025E0001368013B1360002B00D010BDFFF7E2FF22
:1025F000FBE7C04640040020EFF3108072B670473E
:1026000080F310887047000010B5FFF7F5FF040055
:1026100001F070F8002803D0034B802252051A60A5
:102620002000FFF7EDFF10BD04ED00E010B5084CF1
:1026300000232360074A1360052003F0D3F86421C8
:1026400004F000FD0138044B18600723236010BD1F
:1026500010E000E018E000E014E000E010B5224BCC
:102660001968FF2212040A431A601968FF22120631
:102670000A431A6002201D49404201F015FE012064
:102680001B49404201F010FE05201A49404201F06A
:102690000BFEFFF7CBFF184B00221A60D0231B065E
:1026A000164A19681170FF221A6502E0D0231B0632
:1026B0009B6DD0231B061B6DDB07F7D4D0231B06B5
:1026C0001C680F34FF21200003F014FA0C4920008D
:1026D00003F010F90121200003F0F4F8FFF78CFE5D
:1026E00001F052F9FFF7CCFE20ED00E021240010AC
:1026F00009260010F5230010400400203D040020AE
:102700008924001010B50A4B1B78D02212061068DD
:10271000834200D010BDFDF7A6FD002805D0D023D0
:102720001B061B684000C018F4E701F0E5FAF1E76A
:102730003D04002000B583B0144B1A78D0231B064B
:102740001B689A4209D00368BFF35F8F00221A60AA
:1027500081F3108820BF03B000BD03680C4A1360EA
:102760000C4A11600C4A944663449B100121994025
:102770000B021943090A094B186801235B420093B5
:102780000023012200F007F9E5E7C0463D040020E0
:102790005CDA022090DC032000FFFF2F10DD032015
:1027A00010B582B002682C4B9C4662449210012303
:1027B00093401A021A43120A284B1C78D0231B0696
:1027C0001B689C4220D040BF254B1B6804689C427C
:1027D0003DD01C68002CFCD0BFF35F8F214B1C68E0
:1027E00022431A601E4B1B68BFF35F8F00221A60E2
:1027F0000023D022120653650268BFF35F8F136077
:1028000081F3108802B010BD40BF0368BFF35F8F33
:102810000020186081F31088EFF30583DBB2002BF2
:1028200005D1114B1868110000F00FF9EAE70023F9
:1028300001930D4B196801AB0C4801F0FDFC019BA5
:10284000002BDFD00A4B802252051A60DAE7054BD5
:102850001C6822431A60CBE700FFFF2F3D040020D5
:10286000F4D90220A8DC032010DD0320A92A0010DF
:1028700004ED00E0F0B583B007000E0015001C0069
:10288000274B1A78D0231B061B689A420ED0036888
:10289000BFF35F8F00221A6081F3108828002100A7
:1028A00002F000FA0400200003B0F0BD280021006F
:1028B000FFF72AFE031E12D13B68BFF35F8F002291
:1028C0001A6086F31088174B5B6A9C421FD8154A22
:1028D000926AAA4221D29C4217D0012418E03A6899
:1028E00011490A6011490E6011498C4662449210E8
:1028F000012191400A021143090A0E4A106800930F
:102900000023012200F047F8DDE7002400E0002466
:10291000002CC8D1FFF736FEC5E70124F8E7C04612
:102920003D040020004005405CDA022090DC0320DA
:1029300000FFFF2F10DD032010B5FFF7F9FC054B5A
:102940009C4660448000044B186000F018F8034B6C
:10295000186010BD40000034F4D9022010DD0320BF
:10296000002A03D1014206D1100003E0084088424A
:1029700003D0002070470120FCE70120FAE710B5E2
:10298000182001F0B3FC041E03D0002308C000F09F
:102990008FF8200010BDF0B5C64600B505000E004A
:1029A00090461F0000F098FE2C683A00310020008D
:1029B000FFF7D6FF002808D04346002B1BD023008A
:1029C000B3432B600023069317E0069B002B14D023
:1029D0004346002B0CD10021002F02D08023DB04C2
:1029E00019433143281D069A01F01EF8002404E023
:1029F00080214904F0E70023069300F01BFF069BAB
:102A0000002B08D000280AD001F05CFA04008301F2
:102A100008D52402240A200080BCB846F0BDFFF788
:102A2000B1FDF1E7FFF7BAFD2C683A003100200054
:102A3000FFF796FF002805D04346002B02D0230065
:102A4000B3432B60FFF7CAFDE3E7F8B504000D00C0
:102A500006000C3600F040FE206923681D43256007
:102A600000270BE021681940994206D111E080212E
:102A700089042368194301F087F82800B0420CD07C
:102A80004568026813021B0A5101EBD421680B420E
:102A9000F3D0D201EBD51F43E9E72368BB432360A2
:102AA00000F0C8FE2068F8BD10B5FFF7CEFF10BDDE
:102AB000030008334360012252428260C360036115
:102AC00000230360704700230361704743684B6035
:102AD0009A688A60516099600861036801330360F5
:102AE000704730B50C68631C10D0030008331A001F
:102AF0005B681D68A542FAD953684B6099608A608B
:102B00005160086103680133036030BD0269F3E777
:102B10000369416882688A60416851605A688242EC
:102B200006D0002202611A68013A1A6018687047DC
:102B300082685A60F5E70300406A002803D01B6BE7
:102B40001B680420C01A704710B50400FFF726FD6B
:102B5000A26BE36B9A4204D00024FFF73FFD2000F4
:102B600010BD0124F9E710B50400FFF717FDA36BB2
:102B7000002B04D10124FFF731FD200010BD0024FB
:102B8000F9E770B504001500866B026C002A0CD1C1
:102B90000368002B03D000200136A66370BD806857
:102BA00001F00AF90023A360F6E7002D0ED140687A
:102BB00005F07AF96368226C944663446360A26806
:102BC00093421BD3236863602800E5E7C06805F0E3
:102BD0006BF9236C5A42E168CB1AE36021688B429F
:102BE00003D2A3689C466244E260022D01D000201B
:102BF000D2E7002E04D0013E0020CDE72800CBE72D
:102C00000020C9E710B5030008001A6C002A0AD09A
:102C1000D9688918D9609C68A14201D31968D96024
:102C2000D96805F041F910BD70B50500FFF7B6FC95
:102C30004523EC5C64B201E0013C64B2002C0BDD86
:102C40006B6A002B08D02800243000F02DFF0028EC
:102C5000F2D001F03FF8EFE74523FF22EA54FFF7F7
:102C6000BDFCFFF79BFC4423EC5C64B201E0013C3B
:102C700064B2002C0BDD2B69002B08D0280010302B
:102C800000F012FF0028F2D001F024F8EFE744230F
:102C9000FF22EA54FFF7A2FC70BDF8B504000D0056
:102CA000002852D0C36B002B51D0016C00260F0CB2
:102CB0001A0C002F13D190B2002803D1002E14D08B
:102CC000002045E0081C89B29BB24B4380B292B20F
:102CD00042431B0CD3181B0CF0D00126EEE792B236
:102CE000002AFAD13A1C181CEDE7FFF757FC2268BE
:102CF000E36B206C010059435118A1600021A163CE
:102D00006260013B4343D318E360FF234422A35492
:102D10000132A354002D0FD12369002B03D1FFF7FB
:102D20005DFC012014E02000103000F0BDFE002802
:102D3000F5D0FFF727FCF2E720001030FFF7B8FED0
:102D400020002430FFF7B4FEE9E7002000E0002077
:102D5000F8BD10B503000298002906D10060C363D6
:102D600001640121FFF799FF10BD0260F7E7F0B59C
:102D700083B004000D00160000282FD000200A0C9C
:102D8000230C002A25D19AB2002A14D1002829D177
:102D9000280060430300493326D8483001F0A6FAE2
:102DA000071E1CD00200483200903300290020008A
:102DB000FFF7CFFF13E01A1C2F1CABB2A1B259438F
:102DC000BFB293B27B43090C5B181B0CDED0012011
:102DD000DCE79BB2002BFAD1271CEEE70027380076
:102DE00003B0F0BD0027FAE70027F8E7F0B585B09B
:102DF00004000D0001921E00002730E0320029007F
:102E00002000FFF7BEFE636A002B06D100280DD11B
:102E1000FFF7E4FB012005B0F0BD2000243000F0F6
:102E200043FE0028F4D0FFF7ADFBF1E7FFF7AAFB64
:102E3000EEE7FFF7D3FB0020EDE702A800F000FF6C
:102E4000013719E044230022E25420E04523002208
:102E5000E25421E02000FFF7E7FE00F0EBFCFFF773
:102E60009DFBA36BE26B9342C8D3022EC6D0019B9D
:102E7000002BDED0002FE0D0FFF7B0FB00F02CFCE1
:102E8000FFF78CFB4423E15C49B24B1CDAD04523AD
:102E9000E05C40B2431CD9D0FFF7A0FB01A902A817
:102EA00000F0DAFE002813D12000FFF74DFE0028C5
:102EB000D0D020001030019900F0A8FD2000FFF7CD
:102EC000B3FE00F0B7FC0028C9D1FFF75BFBC6E7F3
:102ED0002000FFF7A9FE00F0ADFC00209BE710B535
:102EE000002807D0002383600360C3600022002114
:102EF000FFF77CFF10BD10B5020000210120FFF795
:102F000036FF0400FFF7EBFF200010BDF0B583B0E3
:102F10000400009101921D00FFF76EFB0700A36BF8
:102F2000E26B934208D3022D06D000243800FFF74D
:102F300067FB200003B0F0BD4523E65C76B2A36BCF
:102F40002A0000992000FFF71CFE731C05D0731C9B
:102F50005BB24522A3540124E8E7636A002B01D148
:102F60000124E3E72000243000F09EFD002806D075
:102F7000019A002A05D0012313600124D6E7012419
:102F8000D4E70124D2E7F0B585B004000D0001922A
:102F9000002737E029002000FFF734FE013EA6633A
:102FA0002369002B04D1FFF719FB012005B0F0BD08
:102FB0002000103000F078FD0028F4D0FFF7E2FA8E
:102FC000F1E7FFF70BFB0020F0E702A800F038FE66
:102FD000013721E044230022E25428E04523002267
:102FE000E25429E02000FFF71FFE00F023FC09E077
:102FF0002000FFF719FE00F01DFC2000FFF7B3FDD5
:10300000002835D1FFF7CAFAA66B002EC2D1019B6A
:10301000002BD6D0002FD8D0FFF7E0FA00F05CFBF1
:10302000FFF7BCFA4423E35C5BB20133D2D0452303
:10303000E35C5BB20133D1D0FFF7D0FA01A902A85B
:1030400000F00AFE0028D3D12000FFF78CFD0028F5
:10305000C8D020002430019900F0D8FC2000FFF7F0
:10306000E3FD00F0E7FB0028CCD1FFF78BFAC9E7BE
:1030700000209BE770B584B0040001910025002674
:1030800043E0013BA3632368002B07D02369002B97
:1030900008D1FFF7A3FA012004B070BD00F01EFFB5
:1030A000A060F3E72000103000F0FEFC0028F0D014
:1030B000FFF768FAEDE7FFF791FA0020ECE702A8C6
:1030C00000F0BEFD01362AE044230022E25431E044
:1030D00045230022E25432E0FFF760FAA06800F0D6
:1030E00011FE0500FFF77AFA39E02000FFF79CFD9A
:1030F00000F0A0FB09E02000FFF796FD00F09AFB2E
:103100002000FFF730FD002838D1FFF747FAA36B06
:10311000002BB6D1019B002BCDD0002ECFD0FFF7D6
:103120005DFA00F0D9FAFFF739FA4423E35C5BB2A9
:103130000133C9D04523E35C5BB20133C8D0FFF74C
:103140004DFA01A902A800F087FD0028D3D1200084
:10315000FFF709FD0028C8D02368002BBCD0200051
:103160002430019900F052FC2000FFF75DFD00F0D3
:1031700061FB0028C9D1FFF705FAC6E7002D01D190
:10318000002089E7FFF70AFA2000FFF7D4FC0100CE
:10319000A06800F051FEFFF721FAF1E730B50029F1
:1031A00008D00025002307E00C4D2D19002D01D07B
:1031B0002960686030BD0133092BF7D8DC00074A6D
:1031C000121952688242EFD0002DF4D1DA00034C7C
:1031D0001259002AEFD1DA00A518ECE740DD0320F0
:1031E00070B504000D001600FFF7D8F94423E35C26
:1031F0005BB201330DD04523E35C5BB201330CD0ED
:10320000FFF7ECF9A36B002B0BD02000FFF70CFDB0
:1032100070BD44230022E254EDE745230022E2542E
:10322000EEE7200024303200290000F01DFCECE71E
:10323000002301E0013001330278A52AFAD0980872
:1032400080B27047084B1B681B68002B04D1074BEA
:10325000012252421A607047034B1B68DB681A68F0
:10326000024B1A60F7E7C04600DA022020DD032097
:1032700010B50400006B01F075F8200001F072F841
:1032800010BD0000F0B5DE4657464646C0B5824642
:103290000F0014009B46089E0A9D9200A521286BF2
:1032A00004F0FCFD2A4B9C466444A4002B6B9C4616
:1032B000644407239C43A046002F44D000240F2CD5
:1032C00008D83A5D2B1934331A703B5D002B01D0BE
:1032D0000134F4E743230022EA54032E00D90326E5
:1032E000EE626E640024AC64281DFFF7ECFB28003E
:1032F0001830FFF7E8FB2D6104239E1BAE616D6261
:1033000028004C301422002104F0C8FD2800603051
:103310000C22002104F0C2FD28006C3003220021A1
:1033200004F0BCFD6F23EC545A4651464046FFF76B
:1033300019F92860099B002B00D01D60E0BCBB463A
:10334000B246A846F0BD34230022EA54C5E7C04681
:10335000FFFFFF3F70B5002407E0A3001B199A0090
:103360000E488018FFF7A4FB0134032CF5D90C4D4F
:103370002800FFF79DFB0B4C2000FFF799FB0A4844
:10338000FFF796FB0948FFF793FB0948FFF790FB0F
:10339000084B1D60084B1C6070BDC0460CDA022053
:1033A000E8DC0320FCDC03202CDD0320A8DD032067
:1033B00094DD032000DA022004DA022010B50400B4
:1033C000FFF7ECF8284A136801331360274B1B689A
:1033D000002B0CD0264B1B68002B0DD1234B1B68F8
:1033E000DB6AE26A934207D8204B1C6004E01F4B63
:1033F0001C601368012B30D01E4A13680133136020
:10340000E26A1D4B1B689A4201D91B4B1A601B498B
:1034100093009B189B00CB185B68A3609868E060E2
:10342000221D42609A60E06A83001A1892008A188E
:1034300062611A189200525801321B189B005A50B0
:10344000FFF7CCF80A4B1B68002B05D0074B1B6815
:10345000DA6AE36A9A4203D310BDFFF77BFFCBE73A
:10346000FFF790F8F8E7C046ACDC0320F8D902205B
:1034700090DD0320B8DC0320BCDC03200CDA022042
:1034800010B514E0FFF78AF80B4BDB68DC68201DF1
:10349000FFF73EFB094A1368013B1360084A1368B3
:1034A000013B1360FFF79AF82000FFF7E1FE044BA1
:1034B0001B68002BE6D110BDA8DD0320ACDC032087
:1034C000B0DC032010B5FFF7DBFF034B1B68012BBB
:1034D000F9D9FFF757F8F6E70CDA022070B50400C7
:1034E0000D001F4B1E681F4B19686F220020885467
:1034F00018680430FFF70CFB631C0DD03419194B0E
:103500001B685C60A6421DD9174B1868154B1968DB
:103510000431FFF7E6FA70BD002DEFD0134A516871
:10352000104B1868816018688C68C4601868043093
:1035300060601868043088601B685A611368013342
:103540001360E8E70A4B1868064B19680431FFF767
:10355000C8FA084B1B68A342DDD9064B1C60DAE7AA
:10356000BCDD0320F8D9022004DA022094DD032018
:1035700000DA022020DD0320F0B587B00490059129
:1035800016001F00900000F0B1FE041E1DD0702038
:1035900000F0ACFE051E14D00463002D19D00023EA
:1035A000039302950D9B01930C9B00933B0032000B
:1035B00005990498FFF766FE2800FFF7FFFE01203B
:1035C00005E0200000F0CEFEE7E70120404207B012
:1035D000F0BD01204042FAE770B50400FEF7DEFFBF
:1035E000002C2AD0251D2800FFF792FAA36A002B91
:1035F00003D020001830FFF78BFA174A1368013305
:103600001360164B1B68A3421AD0154A1368013B7E
:103610001360FFF717FEFEF7E1FF104B1B68A34294
:1036200002D02000FFF724FE0E4B1B68002B03D0B6
:103630000A4B1B68A3420CD070BD084B1C68D1E735
:1036400029000948FFF742FA084A1368013313605A
:10365000E1E7FEF797FFEFE7B8DC0320F8D9022097
:10366000ACDC032090DD0320A8DD0320B0DC0320C8
:1036700000B583B08022114B0193002300935200C8
:103680000F491048FFF778FF012805D0012806D020
:103690000D4B1B6803B000BD00F0AEFDF6E772B63F
:1036A0000A4B012252421A60094B02321A60094B3E
:1036B00000221A60FEF7D2FFEAE7C04614DD0320BD
:1036C00010FB0010C53400104404002020DD03204E
:1036D00090DD0320BCDD0320024A13680133136030
:1036E0007047C046B4DC0320014B18687047C046E1
:1036F000BCDD0320F8B5444B1B68002B7ED1434B47
:103700001E6801361E60002E0AD0414B1B68B34272
:1037100013D900203F4B1B68002B74D0012072E0AE
:103720003D4A11683D4B1868106019603C4A1368A7
:1037300001331360FFF786FDE7E7002033E0344BE9
:10374000012252421A60E5E7314B1A60E2E7D9687C
:1037500051603EE000219962116801391160DA6A16
:10376000304909688A4201D92E490A602E499400DD
:10377000A418A2008A1852689A609468DC60656098
:103780009560DC6AA2001719BD004D195D61BD008E
:103790006D580135BC006550DA6A244B1B68DB6A42
:1037A0009A4200D301201C4B1B681B68002BC6D01B
:1037B000194B1B68DB68DB685A689642C4D35A69A8
:1037C0009C68D968A1609C684C601D1D5168A94225
:1037D000BDD0002159611168013911609A6A002A2F
:1037E000BDD0DC69196AA160DC694C601900183130
:1037F00054688C42AED1196A5160ABE70C4A136829
:10380000013313600020F8BDB4DC0320BCDD0320CD
:1038100020DD0320C8DD032000DA022004DA0220C4
:1038200024DD0320BCDC03200CDA0220F8D90220BE
:1038300028DD032010B5FEF7B1FE434B1A68013AAC
:103840001A601B68002B7AD1404B1B68002B07D1F4
:10385000002475E0196A516015E0D968516021E0D3
:1038600000233B4A1268002A4AD0394BDB68DB68E8
:103870009A6AD869196A8160D86948601900183154
:1038800050688842E6D000219962116801391160C0
:103890005A699868D9688160986848601C1D5168A9
:1038A000A142DAD000215961116801391160D96A49
:1038B000284A1268914201D9264A116026488A0096
:1038C00052189200821852689A609168D9604C60D0
:1038D0009460DC6AA200111989004118596111191C
:1038E0008900095801311219920011501B4A1268BF
:1038F000D26AD96A9142B4D3194A01211160B0E762
:10390000002B01D0FFF79EFC164B1C68002C0AD13F
:10391000134B1C68002C13D0FEF734FE01240FE07B
:10392000013C002C07D0FFF7E5FE0028F8D00C4B37
:1039300001221A60F4E70B4B00221A60E8E700242A
:10394000FEF74CFE200010BDB4DC0320ACDC0320ED
:103950002CDD0320BCDC03200CDA0220F8D9022085
:10396000C8DD032028DD032010B5041E09D0FFF7B1
:10397000B3FE00212000FFF7B1FDFFF75BFF002839
:1039800001D1FEF7FFFD10BD10B51B4B1B68002BCE
:1039900003D01A4B01221A6010BD184B00221A6086
:1039A000174B1B6800E0013B9A00D2189100154AA2
:1039B0008A58002AF7D013489A0041184C68646866
:1039C0004C60D21891000831401884420BD09A0004
:1039D000D21891000B4A52185268D1680A4A1160F5
:1039E000074A1360D8E760689A00D2189100054A28
:1039F00052185060EBE7C046B4DC0320C8DD03205A
:103A0000BCDC03200CDA0220F8D9022010B50C002F
:103A1000044B19681831FFF764F801212000FFF703
:103A20005DFD10BDF8D9022070B5030010000D4CEB
:103A30002568802212060A43AA615A682168CA6171
:103A4000216895680D622168183169602168183114
:103A50009160226893621A6801321A600121FFF7AF
:103A60003DFD70BDF8D9022070B5030008001100BB
:103A70005A680C4C2568EA61256896682E622568AC
:103A800018357560256818359560226893621A6844
:103A900001321A60002901D001204042FFF71EFDCB
:103AA00070BDC046F8D9022010B5C368DB689A6AB9
:103AB000D869196A8160D86948601800183051685F
:103AC000814241D000219962116801391160284A70
:103AD0001268002A3ED15A699868D968816098684E
:103AE00048601C1D5168A14231D000215961116804
:103AF00001391160D96A1F4A1268914201D91D4AE1
:103B000011601D488A0052189200821852689A600B
:103B10009168D9604C609460DC6AA2001119890038
:103B2000411859611119890009580131121992007F
:103B30001150DA6A114B1B68DB6A9A4216D9104B96
:103B400001221A60012010BD196A5160BAE7D968D4
:103B50005160CAE70B4A5168D9618C681C62606089
:103B600088609A62116801311160E2E70020EAE79B
:103B7000B4DC0320BCDC03200CDA0220F8D90220DC
:103B8000C8DD03202CDD032010B580231B060B436A
:103B90000360C3680269416884688C608168446816
:103BA0004C60516881423CD00021016111680139AB
:103BB00011605A699868D9688160986848601C1DCE
:103BC0005168A14230D0002159611168013911605A
:103BD000D96A174A1268914201D9154A11601548ED
:103BE0008A0052189200821852689A609168D960CF
:103BF0004C609460DC6AA200111989004118596177
:103C00001119890009580131121992001150DA6A0C
:103C1000094B1B68DB6A9A4202D9084B01221A60E1
:103C200010BD81685160BFE7D9685160CBE7C046DD
:103C3000BCDC03200CDA0220F8D90220C8DD032006
:103C4000034B1B680360034B1B6843607047C0460F
:103C500024DD0320BCDD0320F8B504000D00FEF7D1
:103C60009DFC194B1A686368D61A184908686F21B9
:103C7000415C002909D0154B1A686F230021D154EB
:103C80000124FEF7ABFC2000F8BD2968481C18D0C1
:103C90000F4800682768874205D0934203D8002365
:103CA0002B600124EDE7B14203D800232B600124EF
:103CB000E7E79B1A5B182B602000FFF7C1FF002489
:103CC000DFE70024DDE7C046BCDD0320F8D9022091
:103CD00024DD0320014B01221A607047C8DD032058
:103CE00010B5002803D0006BFFF7A2FA10BD014BFE
:103CF0001868F8E7F8D90220014B18687047C046E9
:103D0000F8D9022070B5041E4CD0C26A274B1B683C
:103D1000DB6A9A423ED28369002B05DB234B1B688A
:103D2000D96A04235B1A836193009B189B00204A85
:103D3000D31862699A4205D01C4B1B68DB6AE362A8
:103D4000012030E0251D2800FEF7E2FE174B1B681E
:103D5000DA6AE262174B1B689A4201D9154B1A6066
:103D6000134993009B189B00CB185B68A3609A686B
:103D7000E26055609D60E06A83001A1892008A181C
:103D800062611A189200525801321B189B005A5057
:103D9000012008E0426C054B1B68DB6A9A4203D3A2
:103DA000002000E0002070BD0120FCE7F8D90220CF
:103DB0000CDA0220BCDC032070B5041E33D0836C07
:103DC000013B8364C26A416C8A422ED0002B01D031
:103DD000002070BD051D2800FEF79AFE626CE262AD
:103DE00004239B1AA361124B1B689A4201D9104B02
:103DF0001A60104993009B189B00CB185B68A36066
:103E00009A68E26055609D60E06A83001A1892002B
:103E10008A1862611A189200525801321B189B00CE
:103E20005A500120D5E70020D3E70020D1E7C04653
:103E3000BCDC03200CDA022070B5041E09D0436CF0
:103E40008B4200D20B00E26A9A4202D0A16C012997
:103E500000D070BDE362A169002902DB0421CB1A06
:103E6000A36193009A189200144B9A1863699342C5
:103E7000EFD1251D2800FEF74BFEE26A104B1B68B0
:103E80009A4201D90E4B1A600C4993009B189B0073
:103E9000CB185B68A3609A68E26055609D60E06A39
:103EA00083001A1892008A1862611A1892005258F8
:103EB00001321B189B005A50CBE7C0460CDA022097
:103EC000BCDC0320044A136898691368D96A126835
:103ED00004235B1A93617047F8D90220054B1B68D5
:103EE000002B04D0034B1A68936C01339364014B8D
:103EF00018687047F8D90220074B1A681368002B1E
:103F000006D101330360002B04D1D36818687047D1
:103F10000023F7E70020FAE7FCD9022010B5416042
:103F2000006191420CD8D21A83699A4201D30120D0
:103F300010BD011D094B1868FEF7D3FD0020F7E7FF
:103F40009A4201D2994206D2011D054B1868FEF72C
:103F5000C8FD0020ECE70120EAE7C04608DA0220AD
:103F6000FCD9022070B504000D00160005E0A3691D
:103F70009C4665442000236A9847A36959192B0081
:103F800032002000FFF7CAFF0028F0D170BD00000A
:103F900070B505000E000C4B1B68DB68DC68201D4B
:103FA000FEF7B6FD2423E35C5A0707D401229343AE
:103FB0002332A354236A2000984770BD32002900A1
:103FC0002000FFF7CFFFF5E7FCD9022010B505E090
:103FD000DB68186801214942FFF7DAFF054B1B68CF
:103FE0001A68002AF4D1044A024910680860136074
:103FF00010BDC046FCD9022008DA022070B50500C9
:10400000FFF772FB0400074B1B68834205D80023AF
:104010002B60044B1C60200070BDFFF7D7FF01230D
:104020002B60F6E718DD032070B582B004000D00A8
:10403000FFF752FB01A8FFF7E1FF0600019B002BF1
:1040400023D1002D01D1A04213D2002D05D0104A5A
:1040500012681268002A13D10125A11B0D4B1868A4
:104060002A00FFF7BDF8FFF7E5FB00280AD002B0F1
:1040700070BDFFF7DFFB31002000FFF789FFF6E797
:104080001D00EAE7FEF77EFAF1E7FFF7D3FBEEE764
:1040900008DA0220C0DD032030B587B002E0029BC1
:1040A000002B0FDA344B1868002202A9FEF76BFFD1
:1040B00000285FD0029B002BF1DA039B059904983E
:1040C0009847ECE7049C6369002B02D0201DFEF7A3
:1040D0001FFD01A8FFF792FF050002990929E1D809
:1040E0008900264B59588F462422A35C01210B439B
:1040F000A3540399A3699C466144039B02002000DA
:10410000FFF70CFF0028CDD02423E35C5A0707D427
:10411000012293432332A354236A20009847C1E726
:104120000399A3699C4661442A002000FFF71AFF07
:10413000F2E72422A35C01218B43A354B2E724229B
:10414000A35C01210B43A3540399A1610918030047
:1041500002002000FFF7E2FEA4E72423E35C9A07B5
:1041600004D5012293432332A3549BE7200000F09F
:10417000F9F897E707B030BDC0DD032018FB001049
:1041800000B583B001A8FFF7B7FE0199FFF74CFF18
:10419000FFF782FFF6E7000070B5FEF7FFF9104B5E
:1041A0001B68002B02D0FEF719FA70BD0D4D2800D8
:1041B000FEF77EFC0C4C2000FEF77AFC0B4B1D60DA
:1041C0000B4B1C60002210210A20FEF7D0FD044B8F
:1041D00018600028E7D00749FEF7E0FFE3E7C04694
:1041E000C0DD0320C0DC0320D4DC0320FCD9022086
:1041F00008DA022040FB001000B583B0FFF7CCFFC7
:10420000094B1B68002B0CD08022084B0193032321
:1042100000930023520006490648FFF7ADF903B0AA
:1042200000BD0020FBE7C046C0DD0320C4DD032045
:1042300048FB00108141001010B584B014001A0032
:1042400002235B420093019002910394034B186890
:1042500000236946FEF75AFE04B010BDC0DD0320FE
:10426000054B984204D3054B984203D3002000E04D
:10427000002070470120FCE7C0010010CC010010B5
:10428000044B9B68103080001950BFF35F8F82F39E
:104290001088704700ED00E0024B9B6810308000F2
:1042A000C058704700ED00E0F8B505000E00EFF3D0
:1042B000108772B6FFF7F0FF0400B04203D0FFF79B
:1042C000CFFF002806D03A0031002800FFF7D8FFC2
:1042D0002000F8BD024B034A3121034801F0C8F821
:1042E00050FB0010ECFB001094FB001070B50400B4
:1042F000430707D0072302009A4313000833834281
:1043000019D80024FFF7E8F9124B1B68002B14D0D2
:10431000002C18D0104B1B681C19104A944214D85A
:10432000A34214D20B4A1568ED180B4B1C60FFF723
:1043300081FA280070BD1C00E4E7094B0722934373
:10434000044A1360E4E70025F1E70025EFE70025C4
:10435000EDE7C046F0D902201CDD0320F7FF000086
:1043600097DC022070470000024B1B680248C01A0D
:104370007047C0461CDD0320F8FF000070B5050043
:104380000C00080000F014FD200000F0E5FD0849D5
:10439000200000F025FDFDF7CBFF064B9C46604456
:1043A000800068602C75A400034BE55070BDC046CA
:1043B000B946001040000034E0D9022010B5084B87
:1043C0001A68EFF3108172B61368002BFCD0BFF3AC
:1043D0005F8F0348FEF7E4F90020002110BDC046BE
:1043E0006CDC022010B5002922D003681B7B9942A7
:1043F0001ED8174B9C466144090183689C46614462
:104400000C684968002A19D003681B7B9A4215D8AA
:1044100083680F488446624412019A1810685368F2
:10442000020001208B4201D80ED00020C0B210BD86
:10443000084B094A3B21094801F01AF8054B064A86
:104440003B21064801F014F8A242EFD8EDE7C04640
:10445000FFFFFF0F64FC001080FE001020FC001026
:1044600010B500291ED0037B99421BD84B005B1866
:10447000033B0468A4466344002919D0002A1DD0D8
:10448000914221D0002A25D0047BA24222D8046880
:1044900050008018033820188170197800291FD126
:1044A0001A7010BD104B114A6921114800F0E0FF4D
:1044B000104B114A70310E4800F0DAFF0F4B0E4AD4
:1044C00071210B4800F0D4FF0D4B0B4A72210848B4
:1044D00000F0CEFF044B054A6921054800F0C8FFF3
:1044E00041701A70DDE7C04698FC0010ECFE001029
:1044F000B4FC00100CFD0010C8FE001018FD0010E8
:1045000024FD001070B506000D001400002914D021
:10451000002A14D0806873689847002806D02200CB
:1045200029003000FFF79CFF280007E02A00210047
:104530003000FFF795FF200000E0100070BD08007C
:10454000FCE70000F0B583B00500009201930AABD0
:104550001C780BAB1F78002C26D003685A7B944242
:1045600007D10123002B19D1002C3BD1200003B02F
:10457000F0BD002C0CD01A7B944209D81A68630055
:104580001B19033BD3189B78002BEBD00123E9E7E1
:104590003E4B3F4A69213F4800F06AFF3E4B3F4A8D
:1045A00065213F4800F064FF03689C7B002CDBD052
:1045B00012D01A7B94420FD862001219033A19687C
:1045C0008C46624451789973002900D1D973002335
:1045D000937053701370C7E72C4B2D4A69212D48F7
:1045E00000F046FF002C3AD02B681B7B9C4236D84B
:1045F0002C4BE3181B01AA6894466344009A1A6086
:10460000019A5A60089A9A60099ADA602E68002C1A
:104610002BD030D0337B9C422DD863001B19033B39
:1046200032689446634400229A705A701A70717B03
:1046300022003000FFF766FF7073844200D095E7D8
:10464000287D009A019B00F013FC061E01D0002F6C
:1046500017D00C9B002B00D188E71E7086E7124B09
:10466000124A3B210E4800F003FF114B114AA621CC
:10467000084800F0FDFE054B054A6921054800F099
:10468000F7FE2868210000F055FEE2E798FC0010D4
:10469000ECFE0010B4FC00103CFD0010F8FE001011
:1046A00020FC0010FFFFFF0F64FC001080FE0010D4
:1046B0001CFC0010DCFE0010F0B5DE4657464E46EE
:1046C0004546E0B58BB00990002308938200B24BB9
:1046D000D658370032E0B14BB14A3F21B14800F023
:1046E000C7FEB14BB14A3B21B14800F0C1FEB14B0E
:1046F000B14A8C21AE4800F0BBFEB04BAE4A9021CF
:10470000AB4800F0B5FEA84BAD4A4021A84800F0E8
:10471000AFFE2A686B68099800F0AAFB00239A464E
:1047200098467B68BFF35F8F00221A6086F310887B
:104730004346002B51D1002800D126E100F044FB74
:1047400002000B1EC7DB002000210690079178684D
:10475000EFF3108672B601680029FCD0BFF35F8FBB
:10476000396888464C7B002C32D0BAD0097B8C4209
:10477000B7D8944965182D01B9688C4665442868F6
:104780006968801A99410029C3DC01D10028C0D191
:104790000021404600F0C4FDA042A8D12A686B6801
:1047A00006920793AB689846EB689A464346002BFF
:1047B000A3D0002CA7D03B681B7B9C42A3D8631ED0
:1047C000FA68D35C08931B02184338610020A8E7FD
:1047D00000239A4698460020A3E7089B1B02234328
:1047E000994651461800C04705000E007A68EFF35D
:1047F000108B72B6136859424B41D9B2002BF9D1D4
:10480000BFF35F8F002E26DB002E52DD3B69002BAD
:1048100053D04B4572D100F0D7FA02000B1E73DB68
:104820000100180052197341984202D804D19142F4
:1048300002D901225242D317002B6BDB00210491D5
:104840000131039102945146019141460091380093
:10485000FFF778FE49E03B69002BD5D04B451CD1D2
:10486000069A079B10001900521BB341994202D8C7
:1048700004D1904202D901225242D317002B12DBFD
:104880000021049101310391029451460191414666
:1048900000913800FFF756FE27E04B4B464A9F2118
:1048A000434800F0E5FD3D4B3D4A3F213D4800F0C7
:1048B000DFFD002E01D1002DA8D13A68002C45D093
:1048C000537B9C422CD1012100293FD1D37B002B6B
:1048D00042D1D473002C52D03B681B7B9C424ED8F3
:1048E000FA68013C135D0133135500233B617A687C
:1048F000BFF35F8F13608BF310881FE7324B2E4A94
:10490000A2212B4800F0B4FD244B254A3F21254825
:1049100000F0AEFD214B224A3F21224800F0A8FDC5
:10492000002C0DD0137B9C420AD863001B19033B5B
:104930001068844663449B78002BC5D00121C3E7EF
:10494000224B234A6921234800F092FD224B234A3F
:10495000F721204800F08CFD002B0AD0117B8B4200
:1049600007D85900CB18033B11688C4663445C7030
:10497000AFE7164B164A6921164800F079FD0A4B3D
:104980000F4A40210A4800F073FD0BB0F0BCBB4653
:10499000B246A946A046F0BDE0D9022088FA001030
:1049A0004CFE0010A4FA001064FC001080FE001001
:1049B00020FC001064FD001064FE00107CFD00105F
:1049C000A4FE0010FFFFFF0F88FD001098FC0010F0
:1049D000ECFE0010B4FC0010C4FD0010B8FE001086
:1049E00010B50A4B5B68002B04D00A21084800F080
:1049F000D3FA10BD054C2300064A1021206800F0B0
:104A0000AFFB03212000FFF7B9FCEEE748040020CC
:104A10006CDC0220E543001010B5064B5B68002BF0
:104A200001D0044810BD044B044A5C21044800F046
:104A30001FFDC04648040020E8FD00108CFE001059
:104A400020FC0010F0B5DE4657464E464546E0B520
:104A50008BB0804616001F00149B9A46159B994602
:104A600016AB1B789B461F2302AA94466344002280
:104A70001A7032E0002809D042461268127B904238
:104A800004D8421E4146C9688A5C48E0434B444A08
:104A90004021444800F0ECFC0798002B75D05B46A1
:104AA000002B72D04946D04704000D0003000B4391
:104AB00000D171E0002946DB00F086F906000F1EE8
:104AC00055DB36196F41B94202D804D1B04202D940
:104AD00001267642F717002F4FDB43465A68EFF363
:104AE000108472B6136859424B41D9B20791002B1A
:104AF000F8D1BFF35F8F1F3302AA94466344049337
:104B00000023039302934B460193534600933200D4
:104B10003B004046FFF716FD031EABD102004146A5
:104B20004968BFF35F8F00250D6084F31088002B68
:104B300029D01F2302A98C4663441B78002BABD1DC
:104B400012021043A9E732003B00361BAF41BB42C3
:104B500002D804D1B24202D901267642F717002FBB
:104B6000BBDA114B114A3F21114800F081FC0E4B7A
:104B70000E4A3F210E4800F07BFC0B4B0B4A3F21B5
:104B80000B4800F075FC012040420BB0F0BCBB4666
:104B9000B246A946A046F0BD0798F6E764FC0010AF
:104BA000A4FE001020FC001088FA00104CFE00103B
:104BB000A4FA0010F8B504004268EFF3108572B64D
:104BC000136858424341D8B2002BF9D1BFF35F8F2D
:104BD000CBB22268567BB3421BD10120002848D0BB
:104BE000206988422BD0090AC9B2002B2ED0206838
:104BF000007B83422AD8581EE668305C88422BD05E
:104C000000206368BFF35F8F00221A6085F310886D
:104C1000F8BD002B0DD0167BB3420AD85E00F61803
:104C2000033E1768BC466644B678002ED6D00120F5
:104C3000D4E7134B134A6921134800F019FC85216E
:104C4000124B134A4900134800F012FC124B134A4E
:104C50004021104800F00CFC1900100000F06AFB25
:104C60000028CED112210E4B094AFF31094800F02D
:104C7000FFFB23698B42C4D100232361C1E7C046F7
:104C800098FC0010ECFE0010B4FC00100CFE0010AC
:104C900034FE001020FC001064FC0010A4FE001084
:104CA00030FE001070B584B006000C00FFF7B4FEB3
:104CB000002302930193194B009332002300FFF766
:104CC000C1FE051E11DD20BFFFF7A6FE2900FFF77C
:104CD00071FF134B5B6A9C421BD8114A926AB24225
:104CE0001AD29C4213D0012014E00D4B5B6A9C4207
:104CF00009D80B4A926AB24207D29C4201D00120E5
:104D000008E0002006E0002004E0012002E000208E
:104D100000E0002004B070BD0120FBE7BD4300109F
:104D20000040054070B5EFF305833F201840103870
:104D3000EFF3108C72B6194B1B68002BFBD0BFF33E
:104D40005F8F012319008140154A5163154A12787B
:104D50001400C440234214D0114B5C6A8300124DEE
:104D60005B599C4206D38300104C1B598A430D4962
:104D70000A7007E00A4A031D9B00995899500023C6
:104D800000E00023BFF35F8F044A002111608CF321
:104D90001088002B00D0984770BDC046280100D075
:104DA00000400540D9DD032080DC02204C130020A8
:104DB00010B50100024A0348FDF73FFA10BDC04696
:104DC00010FF0010D6DD0320044B5B6A034A906A93
:104DD0001900536A9942F9D17047C0460040054016
:104DE00070B504000D00EFF3108672B61B4B1B6804
:104DF000002BFBD0BFF35F8F002D1CD0200000F0F4
:104E000071FD174B83420BD01900200000F072FD9A
:104E10000121200000F056FD0123A340114A136038
:104E2000A400114BE550BFF35F8F0C4B00221A60BA
:104E300086F3108870BDA2000B4B0021D1500122D7
:104E4000A2400A490B7893430B700549200000F0FB
:104E50007BFD0021200000F035FDE4E7280100D0B3
:104E6000254D0010386005404C130020D9DD03208B
:104E7000F0B5DE4600B584B00400150001921E00B6
:104E80000293FFF7A1FF03958E4202D84ED18542CF
:104E90004CD9EFF3108B72B6274B1B68002BFBD05D
:104EA000BFF35F8F254A17780125A540EBB23B433E
:104EB0001370234B5D63221D92000199D150A20013
:104EC0002049029850501B6A2B4212D11C4B1B6C7C
:104ED0002B4208D00020BFF35F8F174B00221A60CF
:104EE0008BF3108823E0184B184AC121184800F0B2
:104EF000BFFAFFF769FF8E4214D802D1039B8342A9
:104F000010D80E4B1B78BB420ED00D4B1D625D635B
:104F10001F2004400123A3400E4A1360074B1F705B
:104F20001E38D8E70020D6E70120D4E7012004B0DE
:104F300080BCBB46F0BDC046280100D0D9DD0320AF
:104F40000040054080DC022034FF0010A8FF001064
:104F500058FF001080E200E0EFF3108C72B60B4BAC
:104F60001B68002BFBD0BFF35F8F01238340084AEF
:104F7000136208490A789A430A70BFF35F8F034BA4
:104F800000221A608CF310887047C046280100D0B8
:104F900000400540D9DD0320024B9C466144890056
:104FA000016070474000003410B50400FDF7C0F9FF
:104FB00001002000FFF7F0FF01235B426360BFF3B5
:104FC0005F8F10BD10B50400FDF7B2F9010020009D
:104FD000FFF7E2FF01235B42636000232372BFF30C
:104FE0005F8F10BD034B9C46614489000160BFF395
:104FF0005F8F70474000003410B504000120FDF7BA
:10500000A5F901002000FFF7EDFF10BD10B5002944
:105010001ED0037B99421BD84B005B18033B0468EE
:10502000A4466344002919D0002A1DD0914221D002
:10503000002A25D0047BA24222D8046850008018A0
:10504000033820188170197800291FD11A7010BDFB
:10505000104B114A6921114800F00AFA104B114A0D
:1050600070310E4800F004FA0F4B0E4A71210B48C4
:1050700000F0FEF90D4B0B4A7221084800F0F8F9D8
:10508000044B054A6921054800F0F2F941701A7095
:10509000DDE7C04698FC0010A0010110B4FC001030
:1050A0000CFD00108C01011018FD001024FD0010F3
:1050B00070B506000D001400002914D0002A14D089
:1050C000806873689847002806D0220029003000C5
:1050D000FFF79CFF280007E02A0021003000FFF7BF
:1050E00095FF200000E0100070BD0800FCE7000004
:1050F00010B50023437301338373037BC373012310
:10510000027B9A4214D9002B0CD0027B934209D81F
:105110005A00D218033A01688C4662440133DBB26C
:105120005370EDE70B4B0C4A69210C4800F0A0F9D5
:10513000002A09D0924207D8016853009A18033A0E
:105140008A180023537010BD024B034A692103489B
:1051500000F08EF998FC0010A0010110B4FC0010C2
:1051600010B5017342608360FFF7C2FF10BD0000FD
:1051700070B50400081E00D170BD002934D0237B17
:10518000994231D84B005B18033B22689446634434
:105190005A78002AF0D02DD0237B9A422AD8530087
:1051A0009B18033B21688C4663445D78002159704D
:1051B000002825D0237B984222D843001B18033BAC
:1051C00021688C4663440021597001002000FFF7DC
:1051D0006FFF060029002000FFF7CAFF0200310020
:1051E0002000FFF765FFC7E7084B094A6921094816
:1051F00000F03EF9054B064A6921064800F038F9EF
:10520000024B034A6921034800F032F998FC001070
:10521000A0010110B4FC001070B505000C001600D0
:10522000002928D02DD0037B99422AD84B005B1847
:10523000033B0268944663445A78002A27D19A783F
:10524000002A2AD11978FFF793FF0300002E03D01C
:10525000EA7B002A27D1EC73002B37D1002C49D0F0
:105260002B7B9C4246D82B6861000C19033C1C190F
:105270000023637070BD224B224A3821224800F07F
:10528000F7F8224B224A6921224800F0F1F8224B1C
:105290001C4A3A211C4800F0EBF8204B194A3B21EC
:1052A000194800F0E5F8002A0AD0297B8A4207D87D
:1052B00051008A18033A29688C4662445470CAE740
:1052C000124B134A6921134800F0D2F8002B0BD07F
:1052D0002A7B934208D843001B18033B2A68944654
:1052E000634400229A70B9E7084B094A69210948CA
:1052F00000F0BEF8054B064A6921064800F0B8F8F0
:105300009C00011078010110A400011098FC00100D
:10531000A0010110B4FC0010EC00011014010110F8
:1053200070B504000A00457B2900FFF775FF607324
:10533000280070BD70B50400002967D0437B8B4204
:105340000ED0002911D0037B99420ED84B005B1878
:10535000033B0268D0188378002B0CD1002056E064
:105360000121FFF7DDFF012051E0294B294A692186
:10537000294800F07DF8002B20D0227B93421DD8D5
:105380005A00D318033B2268D2182568EB5C8B4285
:105390001AD0002B1BD0227B934218D85A00D31866
:1053A000033B2268D21853788B4216D0002BF0D1E1
:1053B0001A4B1B4A67211B4800F05AF8144B154A38
:1053C0006921154800F054F84378137007E0104B3A
:1053D000104A6921104800F04BF8437853700023BD
:1053E0008370437001222000FFF716FF0200617BEB
:1053F000814205D02000FFF75BFE6073012006E0CC
:10540000094B074A6D21074800F032F8002070BDB3
:1054100098FC0010A0010110B4FC0010380101102C
:1054200060010110A40001104001011000BEFDE761
:1054300003000A4A1268002A08D0084A1068C318F4
:10544000074A9A4206D3054A13607047034A054942
:105450001160F2E701204042F7E7C0464015022004
:1054600000000420DCDD032010B5FFF7DFFF0000A3
:1054700010B582B00C001900002A0CD0084B002A8D
:105480000BD00192009323000200064802F054FE64
:105490000120FFF7CBFF044BF1E7034AF1E7C046D9
:1054A000AC010110BC010110ECF8001070B52B4BE1
:1054B0002B4A1A602B4B2C4A1A602C4B9A682A4BA9
:1054C0009343FAD12A4C01E008CC9847294B9C42DF
:1054D000FAD300F007F9234B274A1A60234B9B6845
:1054E000DB43DB01FAD1254B40229A675A671A67E2
:1054F000DA66234C09E0234B234A83212348FFF734
:10550000B7FF2000FFF750FD0834214B9C4209D221
:105510002368002BF5D0012BEDD12000FFF752FDC1
:105520000C34F2E71B4CA1681B4DC022280002F08E
:10553000BBFCA560FAF797FE002800D000BEFCF780
:10554000E7FE00F063FBFFF74BFA144C01E008CCD8
:105550009847134B9C42FAD370BDC04600E0004010
:10556000BFCDFBFE00F00040FE7F3C0000C00040CD
:10557000700D0020800D0020FFFFFF0100F00140B2
:10558000600D0020EC0101107C0201100C020110E2
:10559000700D002000ED00E000000020800D0020D4
:1055A0008C0D00200FB400B583B0084802F092FDC6
:1055B000049B002B07D005A90191180002F09AFD69
:1055C000034802F087FD0120FFF730FF5C02011065
:1055D00024B7001010B50148FFF7E4FF6C0201107A
:1055E000F8B5DE4657464E464546E0B505000F0085
:1055F00092460A9A93424ED31A0E91461E020A9A76
:1056000000233000494601F05FFD80466C006419BC
:10561000A4002F4B9C4664446368834200D26060C0
:105620002B1FDBB29B46012B3BD9C0239B0123439D
:10563000802212011A60AB00264A9958002905D031
:10564000506901F0FFFC01300138FDD153465A0189
:1056500023685A40E0231A4080235B0123431A60E9
:105660005A46012A28D980239B0123438022120114
:105670001A6043466360424600233000494601F009
:1056800023FDAD00134B58510120F0BCBB46B24680
:10569000A946A046F8BD104B104A2D211048FFF72F
:1056A000E7FE012FC1D1C0239B01234303221A60CF
:1056B000A368DB07FCD5C9E72168794003220A40CB
:1056C0001A60A2680123BB401342FAD0CBE7C04660
:1056D000008000407C1400208C020110F0020110B8
:1056E000A002011030B583B00C2000F029FBFCF7BC
:1056F00005FE00280DD0002304E099002D4A2E4815
:1057000088500133092BF8D92A4B2C4A5A6203B02E
:1057100030BD2B4B00229A6700F084FB294B0122FD
:105720001A60274B5B6C012BFBD1274B03221A60BD
:10573000234B9B6B012BFBD1022400940533234A9E
:105740000121234800F070FA00940523214A012129
:10575000214800F069FA214B009300220221042025
:10576000FFF73EFF1E4D00952B0000220121052072
:10577000FFF736FF104C0094230000220021072081
:10578000FFF72EFF00942300002200210820FFF7DE
:1057900027FF0A4B00932300002200210920FFF776
:1057A0001FFF00952B00002200210620FFF718FFA5
:1057B000ADE7C0467C140020006CDC021BB7000083
:1057C000008000403CB0004030B00040002F6859DD
:1057D0000080024000389C1C00C00240001BB70043
:1057E000405973078000014BC05870477C1400205B
:1057F000074B9B68103080001950BFF35F8FBFF3D9
:105800005F8F044B0021196082F310887047C046F7
:1058100000ED00E0240100D010B5091A0439480851
:10582000090B05D14005400D044B184380B210BD53
:10583000034B044A8B210448FFF71AFE00E0FFFFE8
:1058400000030110180501101003011010B5091A0A
:1058500004394C08090B08D14905490D064A114382
:105860000180064B2343438010BD054B054A93211D
:105870000548FFF7FDFDC04600F0FFFF00F8FFFF01
:1058800000030110EC0401101003011001238340F8
:10589000034A10681840431E9841C0B27047C04682
:1058A00000E100E0002904D0034B1860034B1860AE
:1058B0007047034B1860FBE780E200E000E100E086
:1058C00080E100E010B5012383401800FFF7EAFFF4
:1058D00010BD000001238340014A13607047C04699
:1058E00000E200E0024B9B6810308000C058704717
:1058F00000ED00E070B504000D00EFF3108672B605
:105900000C4B1B68002BFBD0BFF35F8F2000FFF711
:10591000E9FF094B984201D0A84205D13200290085
:105920002000FFF765FF70BD044B054A6E21054856
:10593000FFF79EFD240100D0CD0100105C03011093
:105940003405011010030110F0B5CE46474680B56E
:1059500083B006000D00EFF3108872B6574B1B683A
:10596000002BFBD0BFF35F8F554B9A683400103487
:10597000A300D758534B9F4207D0AF4200D19BE0C2
:105980000197514BFB1A2F2B09D9424639003000A1
:10599000FFF72EFF03B0C0BCB946B046F0BD3000E3
:1059A000FFF774FF814600213000FFF78BFFBFF344
:1059B0005F8FFAF758FC002801D0844219D10123E7
:1059C000019C9C43414923003F4A9B1A5B41594338
:1059D000090D49B20022A368AB4212D00622A2569A
:1059E000002A0DDB53009B189B002200364CE41864
:1059F000F1E71E21364B374AFF313748FFF738FDB4
:105A00002200AB4251D106256557002D39DB6B00D2
:105A10005B199A002C4B9B189A68A260DA79E271A4
:105A200006229A56A2719B795BB2002B10DABD2038
:105A30000002A0806B005B199B00234AD318274A01
:105A400011789971157049463000FFF73BFF9CE7CC
:105A5000201D6B005B199B001B4A9B181A1D9B881D
:105A6000D90A1C2907D15B055B150233590051186F
:105A7000FFF7D2FEDDE71A4B1A4A99211648FFF7C5
:105A8000F7FC00280CD1002A08D0FF239371164B95
:105A90009380124B1A78A2711970D4E7094FF8E776
:105AA000201D1249FFF7D2FECDE7A921104B094A6C
:105AB00049000948FFF7DCFC024F66E7240100D0EB
:105AC00000ED00E0CD01001070040020AAAA000043
:105AD000700401100405011010030110D7DD03202C
